{
  "address": "0x0165878A594ca255338adfa4d48449f69242Eb8F",
  "abi": [
    {
      "inputs": [],
      "stateMutability": "nonpayable",
      "type": "constructor"
    },
    {
      "inputs": [
        {
          "internalType": "address",
          "name": "target",
          "type": "address"
        }
      ],
      "name": "AddressEmptyCode",
      "type": "error"
    },
    {
      "inputs": [
        {
          "internalType": "address",
          "name": "implementation",
          "type": "address"
        }
      ],
      "name": "ERC1967InvalidImplementation",
      "type": "error"
    },
    {
      "inputs": [],
      "name": "ERC1967NonPayable",
      "type": "error"
    },
    {
      "inputs": [],
      "name": "EnforcedPause",
      "type": "error"
    },
    {
      "inputs": [],
      "name": "ExpectedPause",
      "type": "error"
    },
    {
      "inputs": [],
      "name": "FailedCall",
      "type": "error"
    },
    {
      "inputs": [],
      "name": "InvalidInitialization",
      "type": "error"
    },
    {
      "inputs": [],
      "name": "NotInitializing",
      "type": "error"
    },
    {
      "inputs": [
        {
          "internalType": "address",
          "name": "owner",
          "type": "address"
        }
      ],
      "name": "OwnableInvalidOwner",
      "type": "error"
    },
    {
      "inputs": [
        {
          "internalType": "address",
          "name": "account",
          "type": "address"
        }
      ],
      "name": "OwnableUnauthorizedAccount",
      "type": "error"
    },
    {
      "inputs": [],
      "name": "ReentrancyGuardReentrantCall",
      "type": "error"
    },
    {
      "inputs": [],
      "name": "UUPSUnauthorizedCallContext",
      "type": "error"
    },
    {
      "inputs": [
        {
          "internalType": "bytes32",
          "name": "slot",
          "type": "bytes32"
        }
      ],
      "name": "UUPSUnsupportedProxiableUUID",
      "type": "error"
    },
    {
      "anonymous": false,
      "inputs": [
        {
          "indexed": false,
          "internalType": "uint64",
          "name": "version",
          "type": "uint64"
        }
      ],
      "name": "Initialized",
      "type": "event"
    },
    {
      "anonymous": false,
      "inputs": [
        {
          "indexed": true,
          "internalType": "address",
          "name": "previousOwner",
          "type": "address"
        },
        {
          "indexed": true,
          "internalType": "address",
          "name": "newOwner",
          "type": "address"
        }
      ],
      "name": "OwnershipTransferred",
      "type": "event"
    },
    {
      "anonymous": false,
      "inputs": [
        {
          "indexed": false,
          "internalType": "address",
          "name": "account",
          "type": "address"
        }
      ],
      "name": "Paused",
      "type": "event"
    },
    {
      "anonymous": false,
      "inputs": [
        {
          "indexed": true,
          "internalType": "address",
          "name": "token",
          "type": "address"
        },
        {
          "indexed": false,
          "internalType": "uint256",
          "name": "tokenId",
          "type": "uint256"
        },
        {
          "indexed": false,
          "internalType": "uint256",
          "name": "amount",
          "type": "uint256"
        }
      ],
      "name": "RecoveredERC1155",
      "type": "event"
    },
    {
      "anonymous": false,
      "inputs": [
        {
          "indexed": true,
          "internalType": "address",
          "name": "token",
          "type": "address"
        },
        {
          "indexed": false,
          "internalType": "uint256",
          "name": "amount",
          "type": "uint256"
        }
      ],
      "name": "RecoveredERC20",
      "type": "event"
    },
    {
      "anonymous": false,
      "inputs": [
        {
          "indexed": true,
          "internalType": "uint256",
          "name": "tokenId",
          "type": "uint256"
        },
        {
          "indexed": false,
          "internalType": "uint256",
          "name": "amount",
          "type": "uint256"
        },
        {
          "indexed": false,
          "internalType": "uint256",
          "name": "duration",
          "type": "uint256"
        }
      ],
      "name": "RewardAdded",
      "type": "event"
    },
    {
      "anonymous": false,
      "inputs": [
        {
          "indexed": true,
          "internalType": "address",
          "name": "user",
          "type": "address"
        },
        {
          "indexed": true,
          "internalType": "uint256",
          "name": "tokenId",
          "type": "uint256"
        },
        {
          "indexed": false,
          "internalType": "uint256",
          "name": "reward",
          "type": "uint256"
        }
      ],
      "name": "RewardClaimed",
      "type": "event"
    },
    {
      "anonymous": false,
      "inputs": [
        {
          "indexed": true,
          "internalType": "uint256",
          "name": "tokenId",
          "type": "uint256"
        },
        {
          "indexed": false,
          "internalType": "uint256",
          "name": "newDuration",
          "type": "uint256"
        }
      ],
      "name": "RewardsDurationUpdated",
      "type": "event"
    },
    {
      "anonymous": false,
      "inputs": [
        {
          "indexed": true,
          "internalType": "address",
          "name": "user",
          "type": "address"
        },
        {
          "indexed": true,
          "internalType": "uint256",
          "name": "tokenId",
          "type": "uint256"
        },
        {
          "indexed": false,
          "internalType": "uint256",
          "name": "amount",
          "type": "uint256"
        }
      ],
      "name": "Staked",
      "type": "event"
    },
    {
      "anonymous": false,
      "inputs": [
        {
          "indexed": false,
          "internalType": "address",
          "name": "account",
          "type": "address"
        }
      ],
      "name": "Unpaused",
      "type": "event"
    },
    {
      "anonymous": false,
      "inputs": [
        {
          "indexed": true,
          "internalType": "address",
          "name": "user",
          "type": "address"
        },
        {
          "indexed": true,
          "internalType": "uint256",
          "name": "tokenId",
          "type": "uint256"
        },
        {
          "indexed": false,
          "internalType": "uint256",
          "name": "amount",
          "type": "uint256"
        }
      ],
      "name": "Unstaked",
      "type": "event"
    },
    {
      "anonymous": false,
      "inputs": [
        {
          "indexed": true,
          "internalType": "address",
          "name": "implementation",
          "type": "address"
        }
      ],
      "name": "Upgraded",
      "type": "event"
    },
    {
      "inputs": [],
      "name": "UPGRADE_INTERFACE_VERSION",
      "outputs": [
        {
          "internalType": "string",
          "name": "",
          "type": "string"
        }
      ],
      "stateMutability": "view",
      "type": "function"
    },
    {
      "inputs": [
        {
          "internalType": "uint256",
          "name": "tokenId",
          "type": "uint256"
        },
        {
          "internalType": "uint256",
          "name": "amount",
          "type": "uint256"
        }
      ],
      "name": "addReward",
      "outputs": [],
      "stateMutability": "nonpayable",
      "type": "function"
    },
    {
      "inputs": [
        {
          "internalType": "uint256",
          "name": "tokenId",
          "type": "uint256"
        }
      ],
      "name": "claimReward",
      "outputs": [],
      "stateMutability": "nonpayable",
      "type": "function"
    },
    {
      "inputs": [
        {
          "internalType": "uint256[]",
          "name": "tokenIds",
          "type": "uint256[]"
        }
      ],
      "name": "claimRewards",
      "outputs": [],
      "stateMutability": "nonpayable",
      "type": "function"
    },
    {
      "inputs": [
        {
          "internalType": "address",
          "name": "account",
          "type": "address"
        },
        {
          "internalType": "uint256",
          "name": "tokenId",
          "type": "uint256"
        }
      ],
      "name": "earned",
      "outputs": [
        {
          "internalType": "uint256",
          "name": "",
          "type": "uint256"
        }
      ],
      "stateMutability": "view",
      "type": "function"
    },
    {
      "inputs": [
        {
          "internalType": "uint256",
          "name": "tokenId",
          "type": "uint256"
        }
      ],
      "name": "exit",
      "outputs": [],
      "stateMutability": "nonpayable",
      "type": "function"
    },
    {
      "inputs": [],
      "name": "farmToken",
      "outputs": [
        {
          "internalType": "contract IERC1155",
          "name": "",
          "type": "address"
        }
      ],
      "stateMutability": "view",
      "type": "function"
    },
    {
      "inputs": [
        {
          "internalType": "uint256",
          "name": "tokenId",
          "type": "uint256"
        }
      ],
      "name": "getRewardFinishTime",
      "outputs": [
        {
          "internalType": "uint256",
          "name": "",
          "type": "uint256"
        }
      ],
      "stateMutability": "view",
      "type": "function"
    },
    {
      "inputs": [
        {
          "internalType": "uint256",
          "name": "tokenId",
          "type": "uint256"
        }
      ],
      "name": "getRewardRate",
      "outputs": [
        {
          "internalType": "uint256",
          "name": "",
          "type": "uint256"
        }
      ],
      "stateMutability": "view",
      "type": "function"
    },
    {
      "inputs": [
        {
          "internalType": "address",
          "name": "account",
          "type": "address"
        },
        {
          "internalType": "uint256",
          "name": "tokenId",
          "type": "uint256"
        }
      ],
      "name": "getStakedAmount",
      "outputs": [
        {
          "internalType": "uint256",
          "name": "",
          "type": "uint256"
        }
      ],
      "stateMutability": "view",
      "type": "function"
    },
    {
      "inputs": [
        {
          "internalType": "uint256",
          "name": "tokenId",
          "type": "uint256"
        }
      ],
      "name": "getTotalStaked",
      "outputs": [
        {
          "internalType": "uint256",
          "name": "",
          "type": "uint256"
        }
      ],
      "stateMutability": "view",
      "type": "function"
    },
    {
      "inputs": [
        {
          "internalType": "address",
          "name": "_farmToken",
          "type": "address"
        },
        {
          "internalType": "address",
          "name": "_rewardToken",
          "type": "address"
        },
        {
          "internalType": "address",
          "name": "initialOwner",
          "type": "address"
        }
      ],
      "name": "initialize",
      "outputs": [],
      "stateMutability": "nonpayable",
      "type": "function"
    },
    {
      "inputs": [
        {
          "internalType": "uint256",
          "name": "tokenId",
          "type": "uint256"
        }
      ],
      "name": "lastTimeRewardApplicable",
      "outputs": [
        {
          "internalType": "uint256",
          "name": "",
          "type": "uint256"
        }
      ],
      "stateMutability": "view",
      "type": "function"
    },
    {
      "inputs": [
        {
          "internalType": "uint256",
          "name": "",
          "type": "uint256"
        }
      ],
      "name": "lastUpdateTimePerToken",
      "outputs": [
        {
          "internalType": "uint256",
          "name": "",
          "type": "uint256"
        }
      ],
      "stateMutability": "view",
      "type": "function"
    },
    {
      "inputs": [
        {
          "internalType": "address",
          "name": "",
          "type": "address"
        },
        {
          "internalType": "address",
          "name": "",
          "type": "address"
        },
        {
          "internalType": "uint256[]",
          "name": "",
          "type": "uint256[]"
        },
        {
          "internalType": "uint256[]",
          "name": "",
          "type": "uint256[]"
        },
        {
          "internalType": "bytes",
          "name": "",
          "type": "bytes"
        }
      ],
      "name": "onERC1155BatchReceived",
      "outputs": [
        {
          "internalType": "bytes4",
          "name": "",
          "type": "bytes4"
        }
      ],
      "stateMutability": "pure",
      "type": "function"
    },
    {
      "inputs": [
        {
          "internalType": "address",
          "name": "",
          "type": "address"
        },
        {
          "internalType": "address",
          "name": "",
          "type": "address"
        },
        {
          "internalType": "uint256",
          "name": "",
          "type": "uint256"
        },
        {
          "internalType": "uint256",
          "name": "",
          "type": "uint256"
        },
        {
          "internalType": "bytes",
          "name": "",
          "type": "bytes"
        }
      ],
      "name": "onERC1155Received",
      "outputs": [
        {
          "internalType": "bytes4",
          "name": "",
          "type": "bytes4"
        }
      ],
      "stateMutability": "pure",
      "type": "function"
    },
    {
      "inputs": [],
      "name": "owner",
      "outputs": [
        {
          "internalType": "address",
          "name": "",
          "type": "address"
        }
      ],
      "stateMutability": "view",
      "type": "function"
    },
    {
      "inputs": [],
      "name": "pause",
      "outputs": [],
      "stateMutability": "nonpayable",
      "type": "function"
    },
    {
      "inputs": [],
      "name": "paused",
      "outputs": [
        {
          "internalType": "bool",
          "name": "",
          "type": "bool"
        }
      ],
      "stateMutability": "view",
      "type": "function"
    },
    {
      "inputs": [],
      "name": "proxiableUUID",
      "outputs": [
        {
          "internalType": "bytes32",
          "name": "",
          "type": "bytes32"
        }
      ],
      "stateMutability": "view",
      "type": "function"
    },
    {
      "inputs": [
        {
          "internalType": "address",
          "name": "tokenAddress",
          "type": "address"
        },
        {
          "internalType": "uint256",
          "name": "tokenId",
          "type": "uint256"
        },
        {
          "internalType": "uint256",
          "name": "amount",
          "type": "uint256"
        }
      ],
      "name": "recoverERC1155",
      "outputs": [],
      "stateMutability": "nonpayable",
      "type": "function"
    },
    {
      "inputs": [
        {
          "internalType": "address",
          "name": "tokenAddress",
          "type": "address"
        },
        {
          "internalType": "uint256",
          "name": "amount",
          "type": "uint256"
        }
      ],
      "name": "recoverERC20",
      "outputs": [],
      "stateMutability": "nonpayable",
      "type": "function"
    },
    {
      "inputs": [],
      "name": "renounceOwnership",
      "outputs": [],
      "stateMutability": "nonpayable",
      "type": "function"
    },
    {
      "inputs": [
        {
          "internalType": "uint256",
          "name": "",
          "type": "uint256"
        }
      ],
      "name": "rewardDurationPerToken",
      "outputs": [
        {
          "internalType": "uint256",
          "name": "",
          "type": "uint256"
        }
      ],
      "stateMutability": "view",
      "type": "function"
    },
    {
      "inputs": [
        {
          "internalType": "uint256",
          "name": "",
          "type": "uint256"
        }
      ],
      "name": "rewardFinishTimePerToken",
      "outputs": [
        {
          "internalType": "uint256",
          "name": "",
          "type": "uint256"
        }
      ],
      "stateMutability": "view",
      "type": "function"
    },
    {
      "inputs": [
        {
          "internalType": "uint256",
          "name": "tokenId",
          "type": "uint256"
        }
      ],
      "name": "rewardPerToken",
      "outputs": [
        {
          "internalType": "uint256",
          "name": "",
          "type": "uint256"
        }
      ],
      "stateMutability": "view",
      "type": "function"
    },
    {
      "inputs": [
        {
          "internalType": "uint256",
          "name": "",
          "type": "uint256"
        }
      ],
      "name": "rewardPerTokenStored",
      "outputs": [
        {
          "internalType": "uint256",
          "name": "",
          "type": "uint256"
        }
      ],
      "stateMutability": "view",
      "type": "function"
    },
    {
      "inputs": [
        {
          "internalType": "uint256",
          "name": "",
          "type": "uint256"
        }
      ],
      "name": "rewardRatePerToken",
      "outputs": [
        {
          "internalType": "uint256",
          "name": "",
          "type": "uint256"
        }
      ],
      "stateMutability": "view",
      "type": "function"
    },
    {
      "inputs": [],
      "name": "rewardToken",
      "outputs": [
        {
          "internalType": "contract IERC20",
          "name": "",
          "type": "address"
        }
      ],
      "stateMutability": "view",
      "type": "function"
    },
    {
      "inputs": [
        {
          "internalType": "uint256",
          "name": "tokenId",
          "type": "uint256"
        },
        {
          "internalType": "uint256",
          "name": "duration",
          "type": "uint256"
        }
      ],
      "name": "setRewardDuration",
      "outputs": [],
      "stateMutability": "nonpayable",
      "type": "function"
    },
    {
      "inputs": [
        {
          "internalType": "uint256",
          "name": "tokenId",
          "type": "uint256"
        },
        {
          "internalType": "uint256",
          "name": "amount",
          "type": "uint256"
        }
      ],
      "name": "stake",
      "outputs": [],
      "stateMutability": "nonpayable",
      "type": "function"
    },
    {
      "inputs": [
        {
          "internalType": "uint256",
          "name": "",
          "type": "uint256"
        },
        {
          "internalType": "address",
          "name": "",
          "type": "address"
        }
      ],
      "name": "stakeInfo",
      "outputs": [
        {
          "internalType": "uint256",
          "name": "amount",
          "type": "uint256"
        },
        {
          "internalType": "uint256",
          "name": "rewardPerTokenPaid",
          "type": "uint256"
        },
        {
          "internalType": "uint256",
          "name": "rewards",
          "type": "uint256"
        },
        {
          "internalType": "uint256",
          "name": "lastUpdateTime",
          "type": "uint256"
        }
      ],
      "stateMutability": "view",
      "type": "function"
    },
    {
      "inputs": [
        {
          "internalType": "bytes4",
          "name": "interfaceId",
          "type": "bytes4"
        }
      ],
      "name": "supportsInterface",
      "outputs": [
        {
          "internalType": "bool",
          "name": "",
          "type": "bool"
        }
      ],
      "stateMutability": "view",
      "type": "function"
    },
    {
      "inputs": [
        {
          "internalType": "uint256",
          "name": "",
          "type": "uint256"
        }
      ],
      "name": "totalStaked",
      "outputs": [
        {
          "internalType": "uint256",
          "name": "",
          "type": "uint256"
        }
      ],
      "stateMutability": "view",
      "type": "function"
    },
    {
      "inputs": [
        {
          "internalType": "address",
          "name": "newOwner",
          "type": "address"
        }
      ],
      "name": "transferOwnership",
      "outputs": [],
      "stateMutability": "nonpayable",
      "type": "function"
    },
    {
      "inputs": [],
      "name": "unpause",
      "outputs": [],
      "stateMutability": "nonpayable",
      "type": "function"
    },
    {
      "inputs": [
        {
          "internalType": "uint256",
          "name": "tokenId",
          "type": "uint256"
        },
        {
          "internalType": "uint256",
          "name": "amount",
          "type": "uint256"
        }
      ],
      "name": "unstake",
      "outputs": [],
      "stateMutability": "nonpayable",
      "type": "function"
    },
    {
      "inputs": [
        {
          "internalType": "address",
          "name": "newImplementation",
          "type": "address"
        },
        {
          "internalType": "bytes",
          "name": "data",
          "type": "bytes"
        }
      ],
      "name": "upgradeToAndCall",
      "outputs": [],
      "stateMutability": "payable",
      "type": "function"
    }
  ],
  "numDeployments": 1,
  "solcInputHash": "6dae2ad63ba841f4f4468e23e3a0e670",
  "bytecode": "0x60a06040523073ffffffffffffffffffffffffffffffffffffffff1660809073ffffffffffffffffffffffffffffffffffffffff1681525034801561004357600080fd5b5061005261005760201b60201c565b6101de565b600061006761015b60201b60201c565b90508060000160089054906101000a900460ff16156100b2576040517ff92ee8a900000000000000000000000000000000000000000000000000000000815260040160405180910390fd5b67ffffffffffffffff80168160000160009054906101000a900467ffffffffffffffff1667ffffffffffffffff16146101585767ffffffffffffffff8160000160006101000a81548167ffffffffffffffff021916908367ffffffffffffffff1602179055507fc7f505b2f371ae2175ee4913f4499e1f2633a7b5936321eed1cdaeb6115181d267ffffffffffffffff60405161014f91906101c3565b60405180910390a15b50565b60008061016c61017560201b60201c565b90508091505090565b60007ff0c57e16840df040f15088dc2f81fe391c3923bec73e23a9662efc9c229c6a0060001b905090565b600067ffffffffffffffff82169050919050565b6101bd816101a0565b82525050565b60006020820190506101d860008301846101b4565b92915050565b6080516144d6610207600039600081816125490152818161259e015261275901526144d66000f3fe6080604052600436106102255760003560e01c8063874c120b11610123578063c0c53b8b116100ab578063e9d67b131161006f578063e9d67b1314610855578063eeca156214610892578063f23a6e61146108cf578063f2fde38b1461090c578063f7c618c11461093557610225565b8063c0c53b8b1461075e578063c2442f9314610787578063cbaa1d9b146107b2578063dbcfa1db146107db578063e57dd4c71461081857610225565b80639e2c8a5b116100f25780639e2c8a5b14610667578063a651356214610690578063ad3cb1cc146106cd578063ae169a50146106f8578063bc197c811461072157610225565b8063874c120b14610599578063882324b4146105d65780638980f11f146106135780638da5cb5b1461063c57610225565b806352d1902d116101b15780637584f914116101755780637584f914146104c757806375c93bb9146105075780637b0472f0146105305780637f8661a1146105595780638456cb591461058257610225565b806352d1902d146104085780635c975abb146104335780635d835ae71461045e5780635eac623914610487578063715018a6146104b057610225565b80633e491d47116101f85780633e491d471461031e5780633f4ba83a1461035b57806341cb8c20146103725780634a84c9ee146103af5780634f1ef286146103ec57610225565b806301ffc9a71461022a5780631d971e2414610267578063210a02ce146102a45780632f8899f3146102e1575b600080fd5b34801561023657600080fd5b50610251600480360381019061024c91906130d4565b610960565b60405161025e919061311c565b60405180910390f35b34801561027357600080fd5b5061028e6004803603810190610289919061316d565b6109da565b60405161029b91906131a9565b60405180910390f35b3480156102b057600080fd5b506102cb60048036038101906102c6919061316d565b6109f2565b6040516102d891906131a9565b60405180910390f35b3480156102ed57600080fd5b506103086004803603810190610303919061316d565b610a0f565b60405161031591906131a9565b60405180910390f35b34801561032a57600080fd5b5061034560048036038101906103409190613222565b610a2c565b60405161035291906131a9565b60405180910390f35b34801561036757600080fd5b50610370610ae5565b005b34801561037e57600080fd5b506103996004803603810190610394919061316d565b610af7565b6040516103a691906131a9565b60405180910390f35b3480156103bb57600080fd5b506103d660048036038101906103d19190613222565b610b0f565b6040516103e391906131a9565b60405180910390f35b610406600480360381019061040191906133a8565b610b6d565b005b34801561041457600080fd5b5061041d610b8c565b60405161042a919061341d565b60405180910390f35b34801561043f57600080fd5b50610448610bbf565b604051610455919061311c565b60405180910390f35b34801561046a57600080fd5b5061048560048036038101906104809190613438565b610be4565b005b34801561049357600080fd5b506104ae60048036038101906104a991906134d8565b610cd8565b005b3480156104bc57600080fd5b506104c5610eec565b005b3480156104d357600080fd5b506104ee60048036038101906104e99190613525565b610f00565b6040516104fe9493929190613565565b60405180910390f35b34801561051357600080fd5b5061052e60048036038101906105299190613438565b610f3d565b005b34801561053c57600080fd5b5061055760048036038101906105529190613438565b611226565b005b34801561056557600080fd5b50610580600480360381019061057b919061316d565b611403565b005b34801561058e57600080fd5b506105976116e9565b005b3480156105a557600080fd5b506105c060048036038101906105bb919061316d565b6116fb565b6040516105cd91906131a9565b60405180910390f35b3480156105e257600080fd5b506105fd60048036038101906105f8919061316d565b6117da565b60405161060a91906131a9565b60405180910390f35b34801561061f57600080fd5b5061063a60048036038101906106359190613222565b6117f2565b005b34801561064857600080fd5b50610651611962565b60405161065e91906135b9565b60405180910390f35b34801561067357600080fd5b5061068e60048036038101906106899190613438565b61199a565b005b34801561069c57600080fd5b506106b760048036038101906106b2919061316d565b611bbc565b6040516106c491906131a9565b60405180910390f35b3480156106d957600080fd5b506106e2611bd9565b6040516106ef9190613653565b60405180910390f35b34801561070457600080fd5b5061071f600480360381019061071a919061316d565b611c12565b005b34801561072d57600080fd5b50610748600480360381019061074391906136cb565b611dd0565b60405161075591906137b6565b60405180910390f35b34801561076a57600080fd5b50610785600480360381019061078091906137d1565b611de8565b005b34801561079357600080fd5b5061079c6120f8565b6040516107a99190613883565b60405180910390f35b3480156107be57600080fd5b506107d960048036038101906107d4919061389e565b61211c565b005b3480156107e757600080fd5b5061080260048036038101906107fd919061316d565b61229c565b60405161080f91906131a9565b60405180910390f35b34801561082457600080fd5b5061083f600480360381019061083a919061316d565b6122b4565b60405161084c91906131a9565b60405180910390f35b34801561086157600080fd5b5061087c6004803603810190610877919061316d565b6122cc565b60405161088991906131a9565b60405180910390f35b34801561089e57600080fd5b506108b960048036038101906108b4919061316d565b6122e4565b6040516108c691906131a9565b60405180910390f35b3480156108db57600080fd5b506108f660048036038101906108f191906138f1565b612322565b60405161090391906137b6565b60405180910390f35b34801561091857600080fd5b50610933600480360381019061092e919061398b565b612338565b005b34801561094157600080fd5b5061094a6123be565b60405161095791906139d9565b60405180910390f35b60007f4e2312e0000000000000000000000000000000000000000000000000000000007bffffffffffffffffffffffffffffffffffffffffffffffffffffffff1916827bffffffffffffffffffffffffffffffffffffffffffffffffffffffff191614806109d357506109d2826123e4565b5b9050919050565b60086020528060005260406000206000915090505481565b600060086000838152602001908152602001600020549050919050565b600060036000838152602001908152602001600020549050919050565b6000806002600084815260200190815260200160002060008573ffffffffffffffffffffffffffffffffffffffff1673ffffffffffffffffffffffffffffffffffffffff16815260200190815260200160002090506000610a8c846116fb565b90506000826001015482610aa09190613a23565b90506000670de0b6b3a7640000828560000154610abd9190613a57565b610ac79190613ac8565b9050808460020154610ad99190613af9565b94505050505092915050565b610aed61244e565b610af56124d5565b565b60036020528060005260406000206000915090505481565b60006002600083815260200190815260200160002060008473ffffffffffffffffffffffffffffffffffffffff1673ffffffffffffffffffffffffffffffffffffffff16815260200190815260200160002060000154905092915050565b610b75612547565b610b7e8261262d565b610b888282612638565b5050565b6000610b96612757565b7f360894a13ba1a3210667c828492db98dca3e2076cc3735a920a3ca505d382bbc60001b905090565b600080610bca6127de565b90508060000160009054906101000a900460ff1691505090565b610bec61244e565b60008111610c2f576040517f08c379a0000000000000000000000000000000000000000000000000000000008152600401610c2690613b9f565b60405180910390fd5b60086000838152602001908152602001600020544211610c84576040517f08c379a0000000000000000000000000000000000000000000000000000000008152600401610c7b90613c31565b60405180910390fd5b806007600084815260200190815260200160002081905550817fd20a04eb2807bde8cbdf16ef27a46d94a3162d81818f1781c0fe4ed9194ca39182604051610ccc91906131a9565b60405180910390a25050565b610ce0612806565b6000805b83839050811015610df5576000848483818110610d0457610d03613c51565b5b905060200201359050610d17338261285d565b60006002600083815260200190815260200160002060003373ffffffffffffffffffffffffffffffffffffffff1673ffffffffffffffffffffffffffffffffffffffff16815260200190815260200160002090506000816002015490506000811115610de557600082600201819055508085610d939190613af9565b9450823373ffffffffffffffffffffffffffffffffffffffff167ff01da32686223933d8a18a391060918c7f11a3648639edd87ae013e2e273174383604051610ddc91906131a9565b60405180910390a35b5050508080600101915050610ce4565b506000811115610edf57600160009054906101000a900473ffffffffffffffffffffffffffffffffffffffff1673ffffffffffffffffffffffffffffffffffffffff1663a9059cbb33836040518363ffffffff1660e01b8152600401610e5c929190613c80565b6020604051808303816000875af1158015610e7b573d6000803e3d6000fd5b505050506040513d601f19601f82011682018060405250810190610e9f9190613cd5565b610ede576040517f08c379a0000000000000000000000000000000000000000000000000000000008152600401610ed590613d74565b60405180910390fd5b5b50610ee861292b565b5050565b610ef461244e565b610efe6000612944565b565b6002602052816000526040600020602052806000526040600020600091509150508060000154908060010154908060020154908060030154905084565b610f45612806565b610f4d61244e565b60008111610f90576040517f08c379a0000000000000000000000000000000000000000000000000000000008152600401610f8790613e06565b60405180910390fd5b6000600360008481526020019081526020016000205411610fe6576040517f08c379a0000000000000000000000000000000000000000000000000000000008152600401610fdd90613e98565b60405180910390fd5b610fef82612a1b565b6000600760008481526020019081526020016000205490506000810361102e5762093a8090508060076000858152602001908152602001600020819055505b60086000848152602001908152602001600020544210156110a057600042600860008681526020019081526020016000205461106a9190613a23565b9050600060066000868152602001908152602001600020548261108d9190613a57565b9050808461109b9190613af9565b935050505b80826110ac9190613ac8565b600660008581526020019081526020016000208190555042600560008581526020019081526020016000208190555080426110e79190613af9565b6008600085815260200190815260200160002081905550600160009054906101000a900473ffffffffffffffffffffffffffffffffffffffff1673ffffffffffffffffffffffffffffffffffffffff166323b872dd3330856040518463ffffffff1660e01b815260040161115d93929190613eb8565b6020604051808303816000875af115801561117c573d6000803e3d6000fd5b505050506040513d601f19601f820116820180604052508101906111a09190613cd5565b6111df576040517f08c379a00000000000000000000000000000000000000000000000000000000081526004016111d690613d74565b60405180910390fd5b827f9795f222c951ae3e749f872dbe287f78d21fa52353e9175cb20ed3aa2b29b82b8383604051611211929190613eef565b60405180910390a25061122261292b565b5050565b61122e612806565b611236612a5e565b60008111611279576040517f08c379a000000000000000000000000000000000000000000000000000000000815260040161127090613f64565b60405180910390fd5b611283338361285d565b806002600084815260200190815260200160002060003373ffffffffffffffffffffffffffffffffffffffff1673ffffffffffffffffffffffffffffffffffffffff16815260200190815260200160002060000160008282546112e69190613af9565b92505081905550806003600084815260200190815260200160002060008282546113109190613af9565b9250508190555060008054906101000a900473ffffffffffffffffffffffffffffffffffffffff1673ffffffffffffffffffffffffffffffffffffffff1663f242432a333085856040518563ffffffff1660e01b81526004016113769493929190613fbb565b600060405180830381600087803b15801561139057600080fd5b505af11580156113a4573d6000803e3d6000fd5b50505050813373ffffffffffffffffffffffffffffffffffffffff167f1449c6dd7851abc30abf37f57715f492010519147cc2652fbc38202c18a6ee90836040516113ef91906131a9565b60405180910390a36113ff61292b565b5050565b61140b612806565b60006002600083815260200190815260200160002060003373ffffffffffffffffffffffffffffffffffffffff1673ffffffffffffffffffffffffffffffffffffffff168152602001908152602001600020905060008160000154905060008111156115905761147b338461285d565b60008260000181905550806003600085815260200190815260200160002060008282546114a89190613a23565b9250508190555060008054906101000a900473ffffffffffffffffffffffffffffffffffffffff1673ffffffffffffffffffffffffffffffffffffffff1663f242432a303386856040518563ffffffff1660e01b815260040161150e9493929190613fbb565b600060405180830381600087803b15801561152857600080fd5b505af115801561153c573d6000803e3d6000fd5b50505050823373ffffffffffffffffffffffffffffffffffffffff167f7fc4727e062e336010f2c282598ef5f14facb3de68cf8195c2f23e1454b2b74e8360405161158791906131a9565b60405180910390a35b60008260020154905060008111156116db5760008360020181905550600160009054906101000a900473ffffffffffffffffffffffffffffffffffffffff1673ffffffffffffffffffffffffffffffffffffffff1663a9059cbb33836040518363ffffffff1660e01b8152600401611609929190613c80565b6020604051808303816000875af1158015611628573d6000803e3d6000fd5b505050506040513d601f19601f8201168201806040525081019061164c9190613cd5565b61168b576040517f08c379a000000000000000000000000000000000000000000000000000000000815260040161168290613d74565b60405180910390fd5b833373ffffffffffffffffffffffffffffffffffffffff167ff01da32686223933d8a18a391060918c7f11a3648639edd87ae013e2e2731743836040516116d291906131a9565b60405180910390a35b5050506116e661292b565b50565b6116f161244e565b6116f9612a9f565b565b60008060036000848152602001908152602001600020540361173257600460008381526020019081526020016000205490506117d5565b600061173d836122e4565b905060006005600085815260200190815260200160002054826117609190613a23565b90506003600085815260200190815260200160002054670de0b6b3a764000060066000878152602001908152602001600020548361179e9190613a57565b6117a89190613a57565b6117b29190613ac8565b60046000868152602001908152602001600020546117d09190613af9565b925050505b919050565b60046020528060005260406000206000915090505481565b6117fa61244e565b600160009054906101000a900473ffffffffffffffffffffffffffffffffffffffff1673ffffffffffffffffffffffffffffffffffffffff168273ffffffffffffffffffffffffffffffffffffffff160361188a576040517f08c379a000000000000000000000000000000000000000000000000000000000815260040161188190614085565b60405180910390fd5b8173ffffffffffffffffffffffffffffffffffffffff1663a9059cbb6118ae611962565b836040518363ffffffff1660e01b81526004016118cc929190613c80565b6020604051808303816000875af11580156118eb573d6000803e3d6000fd5b505050506040513d601f19601f8201168201806040525081019061190f9190613cd5565b508173ffffffffffffffffffffffffffffffffffffffff167f55350610fe57096d8c0ffa30beede987326bccfcb0b4415804164d0dd50ce8b18260405161195691906131a9565b60405180910390a25050565b60008061196d612b11565b90508060000160009054906101000a900473ffffffffffffffffffffffffffffffffffffffff1691505090565b6119a2612806565b600081116119e5576040517f08c379a00000000000000000000000000000000000000000000000000000000081526004016119dc90614117565b60405180910390fd5b60006002600084815260200190815260200160002060003373ffffffffffffffffffffffffffffffffffffffff1673ffffffffffffffffffffffffffffffffffffffff16815260200190815260200160002090508181600001541015611a80576040517f08c379a0000000000000000000000000000000000000000000000000000000008152600401611a77906141a9565b60405180910390fd5b611a8a338461285d565b81816000016000828254611a9e9190613a23565b9250508190555081600360008581526020019081526020016000206000828254611ac89190613a23565b9250508190555060008054906101000a900473ffffffffffffffffffffffffffffffffffffffff1673ffffffffffffffffffffffffffffffffffffffff1663f242432a303386866040518563ffffffff1660e01b8152600401611b2e9493929190613fbb565b600060405180830381600087803b158015611b4857600080fd5b505af1158015611b5c573d6000803e3d6000fd5b50505050823373ffffffffffffffffffffffffffffffffffffffff167f7fc4727e062e336010f2c282598ef5f14facb3de68cf8195c2f23e1454b2b74e84604051611ba791906131a9565b60405180910390a350611bb861292b565b5050565b600060066000838152602001908152602001600020549050919050565b6040518060400160405280600581526020017f352e302e3000000000000000000000000000000000000000000000000000000081525081565b611c1a612806565b611c24338261285d565b60006002600083815260200190815260200160002060003373ffffffffffffffffffffffffffffffffffffffff1673ffffffffffffffffffffffffffffffffffffffff16815260200190815260200160002090506000816002015490506000811115611dc35760008260020181905550600160009054906101000a900473ffffffffffffffffffffffffffffffffffffffff1673ffffffffffffffffffffffffffffffffffffffff1663a9059cbb33836040518363ffffffff1660e01b8152600401611cf1929190613c80565b6020604051808303816000875af1158015611d10573d6000803e3d6000fd5b505050506040513d601f19601f82011682018060405250810190611d349190613cd5565b611d73576040517f08c379a0000000000000000000000000000000000000000000000000000000008152600401611d6a90613d74565b60405180910390fd5b823373ffffffffffffffffffffffffffffffffffffffff167ff01da32686223933d8a18a391060918c7f11a3648639edd87ae013e2e273174383604051611dba91906131a9565b60405180910390a35b5050611dcd61292b565b50565b600063bc197c8160e01b905098975050505050505050565b6000611df2612b39565b905060008160000160089054906101000a900460ff1615905060008260000160009054906101000a900467ffffffffffffffff1690506000808267ffffffffffffffff16148015611e405750825b9050600060018367ffffffffffffffff16148015611e75575060003073ffffffffffffffffffffffffffffffffffffffff163b145b905081158015611e83575080155b15611eba576040517ff92ee8a900000000000000000000000000000000000000000000000000000000815260040160405180910390fd5b60018560000160006101000a81548167ffffffffffffffff021916908367ffffffffffffffff1602179055508315611f0a5760018560000160086101000a81548160ff0219169083151502179055505b611f12612b4d565b611f1b86612b5f565b611f23612b73565b611f2b612b7d565b611f33612b87565b600073ffffffffffffffffffffffffffffffffffffffff168873ffffffffffffffffffffffffffffffffffffffff1603611fa2576040517f08c379a0000000000000000000000000000000000000000000000000000000008152600401611f999061423b565b60405180910390fd5b600073ffffffffffffffffffffffffffffffffffffffff168773ffffffffffffffffffffffffffffffffffffffff1603612011576040517f08c379a0000000000000000000000000000000000000000000000000000000008152600401612008906142cd565b60405180910390fd5b876000806101000a81548173ffffffffffffffffffffffffffffffffffffffff021916908373ffffffffffffffffffffffffffffffffffffffff16021790555086600160006101000a81548173ffffffffffffffffffffffffffffffffffffffff021916908373ffffffffffffffffffffffffffffffffffffffff16021790555083156120ee5760008560000160086101000a81548160ff0219169083151502179055507fc7f505b2f371ae2175ee4913f4499e1f2633a7b5936321eed1cdaeb6115181d260016040516120e5919061433c565b60405180910390a15b5050505050505050565b60008054906101000a900473ffffffffffffffffffffffffffffffffffffffff1681565b61212461244e565b60008054906101000a900473ffffffffffffffffffffffffffffffffffffffff1673ffffffffffffffffffffffffffffffffffffffff168373ffffffffffffffffffffffffffffffffffffffff161415806121915750806003600084815260200190815260200160002054105b6121d0576040517f08c379a00000000000000000000000000000000000000000000000000000000081526004016121c7906143c9565b60405180910390fd5b8273ffffffffffffffffffffffffffffffffffffffff1663f242432a306121f5611962565b85856040518563ffffffff1660e01b81526004016122169493929190613fbb565b600060405180830381600087803b15801561223057600080fd5b505af1158015612244573d6000803e3d6000fd5b505050508273ffffffffffffffffffffffffffffffffffffffff167e04b148840595eb234e6148251c2c9c78d692171f32febbd992963e0c138553838360405161228f929190613eef565b60405180910390a2505050565b60066020528060005260406000206000915090505481565b60076020528060005260406000206000915090505481565b60056020528060005260406000206000915090505481565b60006008600083815260200190815260200160002054421061231957600860008381526020019081526020016000205461231b565b425b9050919050565b600063f23a6e6160e01b90509695505050505050565b61234061244e565b600073ffffffffffffffffffffffffffffffffffffffff168173ffffffffffffffffffffffffffffffffffffffff16036123b25760006040517f1e4fbdf70000000000000000000000000000000000000000000000000000000081526004016123a991906135b9565b60405180910390fd5b6123bb81612944565b50565b600160009054906101000a900473ffffffffffffffffffffffffffffffffffffffff1681565b60007f01ffc9a7000000000000000000000000000000000000000000000000000000007bffffffffffffffffffffffffffffffffffffffffffffffffffffffff1916827bffffffffffffffffffffffffffffffffffffffffffffffffffffffff1916149050919050565b612456612b91565b73ffffffffffffffffffffffffffffffffffffffff16612474611962565b73ffffffffffffffffffffffffffffffffffffffff16146124d357612497612b91565b6040517f118cdaa70000000000000000000000000000000000000000000000000000000081526004016124ca91906135b9565b60405180910390fd5b565b6124dd612b99565b60006124e76127de565b905060008160000160006101000a81548160ff0219169083151502179055507f5db9ee0a495bf2e6ff9c91a7834c1ba4fdd244a5e8aa4e537bd38aeae4b073aa61252f612b91565b60405161253c91906135b9565b60405180910390a150565b7f000000000000000000000000000000000000000000000000000000000000000073ffffffffffffffffffffffffffffffffffffffff163073ffffffffffffffffffffffffffffffffffffffff1614806125f457507f000000000000000000000000000000000000000000000000000000000000000073ffffffffffffffffffffffffffffffffffffffff166125db612bd9565b73ffffffffffffffffffffffffffffffffffffffff1614155b1561262b576040517fe07c8dba00000000000000000000000000000000000000000000000000000000815260040160405180910390fd5b565b61263561244e565b50565b8173ffffffffffffffffffffffffffffffffffffffff166352d1902d6040518163ffffffff1660e01b8152600401602060405180830381865afa9250505080156126a057506040513d601f19601f8201168201806040525081019061269d9190614415565b60015b6126e157816040517f4c9c8ce30000000000000000000000000000000000000000000000000000000081526004016126d891906135b9565b60405180910390fd5b7f360894a13ba1a3210667c828492db98dca3e2076cc3735a920a3ca505d382bbc60001b811461274857806040517faa1d49a400000000000000000000000000000000000000000000000000000000815260040161273f919061341d565b60405180910390fd5b6127528383612c30565b505050565b7f000000000000000000000000000000000000000000000000000000000000000073ffffffffffffffffffffffffffffffffffffffff163073ffffffffffffffffffffffffffffffffffffffff16146127dc576040517fe07c8dba00000000000000000000000000000000000000000000000000000000815260040160405180910390fd5b565b60007fcd5ed15c6e187e77e9aee88184c21f4f2182ab5827cb3b7e07fbedcd63f03300905090565b6000612810612ca3565b90506002816000015403612850576040517f3ee5aeb500000000000000000000000000000000000000000000000000000000815260040160405180910390fd5b6002816000018190555050565b61286681612a1b565b60006002600083815260200190815260200160002060008473ffffffffffffffffffffffffffffffffffffffff1673ffffffffffffffffffffffffffffffffffffffff1681526020019081526020016000209050600073ffffffffffffffffffffffffffffffffffffffff168373ffffffffffffffffffffffffffffffffffffffff1614612926576128f88383610a2c565b8160020181905550600460008381526020019081526020016000205481600101819055504281600301819055505b505050565b6000612935612ca3565b90506001816000018190555050565b600061294e612b11565b905060008160000160009054906101000a900473ffffffffffffffffffffffffffffffffffffffff169050828260000160006101000a81548173ffffffffffffffffffffffffffffffffffffffff021916908373ffffffffffffffffffffffffffffffffffffffff1602179055508273ffffffffffffffffffffffffffffffffffffffff168173ffffffffffffffffffffffffffffffffffffffff167f8be0079c531659141344cd1fd0a4f28419497f9722a3daafe3b4186f6b6457e060405160405180910390a3505050565b612a24816116fb565b6004600083815260200190815260200160002081905550612a44816122e4565b600560008381526020019081526020016000208190555050565b612a66610bbf565b15612a9d576040517fd93c066500000000000000000000000000000000000000000000000000000000815260040160405180910390fd5b565b612aa7612a5e565b6000612ab16127de565b905060018160000160006101000a81548160ff0219169083151502179055507f62e78cea01bee320cd4e420270b5ea74000d11b0c9f74754ebdbfc544b05a258612af9612b91565b604051612b0691906135b9565b60405180910390a150565b60007f9016d09d72d40fdae2fd8ceac6b6234c7706214fd39c1cd1e609a0528c199300905090565b600080612b44612ccb565b90508091505090565b612b55612cf6565b612b5d612d36565b565b612b67612cf6565b612b7081612d57565b50565b612b7b612cf6565b565b612b85612cf6565b565b612b8f612cf6565b565b600033905090565b612ba1610bbf565b612bd7576040517f8dfc202b00000000000000000000000000000000000000000000000000000000815260040160405180910390fd5b565b6000612c077f360894a13ba1a3210667c828492db98dca3e2076cc3735a920a3ca505d382bbc60001b612ddd565b60000160009054906101000a900473ffffffffffffffffffffffffffffffffffffffff16905090565b612c3982612de7565b8173ffffffffffffffffffffffffffffffffffffffff167fbc7cd75a20ee27fd9adebab32041f755214dbc6bffa90cc0225b39da2e5c2d3b60405160405180910390a2600081511115612c9657612c908282612eb4565b50612c9f565b612c9e612f38565b5b5050565b60007f9b779b17422d0df92223018b32b4d1fa46e071723d6817e2486d003becc55f00905090565b60007ff0c57e16840df040f15088dc2f81fe391c3923bec73e23a9662efc9c229c6a0060001b905090565b612cfe612f75565b612d34576040517fd7e6bcf800000000000000000000000000000000000000000000000000000000815260040160405180910390fd5b565b612d3e612cf6565b6000612d48612ca3565b90506001816000018190555050565b612d5f612cf6565b600073ffffffffffffffffffffffffffffffffffffffff168173ffffffffffffffffffffffffffffffffffffffff1603612dd15760006040517f1e4fbdf7000000000000000000000000000000000000000000000000000000008152600401612dc891906135b9565b60405180910390fd5b612dda81612944565b50565b6000819050919050565b60008173ffffffffffffffffffffffffffffffffffffffff163b03612e4357806040517f4c9c8ce3000000000000000000000000000000000000000000000000000000008152600401612e3a91906135b9565b60405180910390fd5b80612e707f360894a13ba1a3210667c828492db98dca3e2076cc3735a920a3ca505d382bbc60001b612ddd565b60000160006101000a81548173ffffffffffffffffffffffffffffffffffffffff021916908373ffffffffffffffffffffffffffffffffffffffff16021790555050565b60606000808473ffffffffffffffffffffffffffffffffffffffff1684604051612ede9190614489565b600060405180830381855af49150503d8060008114612f19576040519150601f19603f3d011682016040523d82523d6000602084013e612f1e565b606091505b5091509150612f2e858383612f95565b9250505092915050565b6000341115612f73576040517fb398979f00000000000000000000000000000000000000000000000000000000815260040160405180910390fd5b565b6000612f7f612b39565b60000160089054906101000a900460ff16905090565b606082612faa57612fa582613024565b61301c565b60008251148015612fd2575060008473ffffffffffffffffffffffffffffffffffffffff163b145b1561301457836040517f9996b31500000000000000000000000000000000000000000000000000000000815260040161300b91906135b9565b60405180910390fd5b81905061301d565b5b9392505050565b60008151111561303657805160208201fd5b6040517fd6bda27500000000000000000000000000000000000000000000000000000000815260040160405180910390fd5b6000604051905090565b600080fd5b600080fd5b60007fffffffff0000000000000000000000000000000000000000000000000000000082169050919050565b6130b18161307c565b81146130bc57600080fd5b50565b6000813590506130ce816130a8565b92915050565b6000602082840312156130ea576130e9613072565b5b60006130f8848285016130bf565b91505092915050565b60008115159050919050565b61311681613101565b82525050565b6000602082019050613131600083018461310d565b92915050565b6000819050919050565b61314a81613137565b811461315557600080fd5b50565b60008135905061316781613141565b92915050565b60006020828403121561318357613182613072565b5b600061319184828501613158565b91505092915050565b6131a381613137565b82525050565b60006020820190506131be600083018461319a565b92915050565b600073ffffffffffffffffffffffffffffffffffffffff82169050919050565b60006131ef826131c4565b9050919050565b6131ff816131e4565b811461320a57600080fd5b50565b60008135905061321c816131f6565b92915050565b6000806040838503121561323957613238613072565b5b60006132478582860161320d565b925050602061325885828601613158565b9150509250929050565b600080fd5b600080fd5b6000601f19601f8301169050919050565b7f4e487b7100000000000000000000000000000000000000000000000000000000600052604160045260246000fd5b6132b58261326c565b810181811067ffffffffffffffff821117156132d4576132d361327d565b5b80604052505050565b60006132e7613068565b90506132f382826132ac565b919050565b600067ffffffffffffffff8211156133135761331261327d565b5b61331c8261326c565b9050602081019050919050565b82818337600083830152505050565b600061334b613346846132f8565b6132dd565b90508281526020810184848401111561336757613366613267565b5b613372848285613329565b509392505050565b600082601f83011261338f5761338e613262565b5b813561339f848260208601613338565b91505092915050565b600080604083850312156133bf576133be613072565b5b60006133cd8582860161320d565b925050602083013567ffffffffffffffff8111156133ee576133ed613077565b5b6133fa8582860161337a565b9150509250929050565b6000819050919050565b61341781613404565b82525050565b6000602082019050613432600083018461340e565b92915050565b6000806040838503121561344f5761344e613072565b5b600061345d85828601613158565b925050602061346e85828601613158565b9150509250929050565b600080fd5b600080fd5b60008083601f84011261349857613497613262565b5b8235905067ffffffffffffffff8111156134b5576134b4613478565b5b6020830191508360208202830111156134d1576134d061347d565b5b9250929050565b600080602083850312156134ef576134ee613072565b5b600083013567ffffffffffffffff81111561350d5761350c613077565b5b61351985828601613482565b92509250509250929050565b6000806040838503121561353c5761353b613072565b5b600061354a85828601613158565b925050602061355b8582860161320d565b9150509250929050565b600060808201905061357a600083018761319a565b613587602083018661319a565b613594604083018561319a565b6135a1606083018461319a565b95945050505050565b6135b3816131e4565b82525050565b60006020820190506135ce60008301846135aa565b92915050565b600081519050919050565b600082825260208201905092915050565b60005b8381101561360e5780820151818401526020810190506135f3565b60008484015250505050565b6000613625826135d4565b61362f81856135df565b935061363f8185602086016135f0565b6136488161326c565b840191505092915050565b6000602082019050818103600083015261366d818461361a565b905092915050565b60008083601f84011261368b5761368a613262565b5b8235905067ffffffffffffffff8111156136a8576136a7613478565b5b6020830191508360018202830111156136c4576136c361347d565b5b9250929050565b60008060008060008060008060a0898b0312156136eb576136ea613072565b5b60006136f98b828c0161320d565b985050602061370a8b828c0161320d565b975050604089013567ffffffffffffffff81111561372b5761372a613077565b5b6137378b828c01613482565b9650965050606089013567ffffffffffffffff81111561375a57613759613077565b5b6137668b828c01613482565b9450945050608089013567ffffffffffffffff81111561378957613788613077565b5b6137958b828c01613675565b92509250509295985092959890939650565b6137b08161307c565b82525050565b60006020820190506137cb60008301846137a7565b92915050565b6000806000606084860312156137ea576137e9613072565b5b60006137f88682870161320d565b93505060206138098682870161320d565b925050604061381a8682870161320d565b9150509250925092565b6000819050919050565b600061384961384461383f846131c4565b613824565b6131c4565b9050919050565b600061385b8261382e565b9050919050565b600061386d82613850565b9050919050565b61387d81613862565b82525050565b60006020820190506138986000830184613874565b92915050565b6000806000606084860312156138b7576138b6613072565b5b60006138c58682870161320d565b93505060206138d686828701613158565b92505060406138e786828701613158565b9150509250925092565b60008060008060008060a0878903121561390e5761390d613072565b5b600061391c89828a0161320d565b965050602061392d89828a0161320d565b955050604061393e89828a01613158565b945050606061394f89828a01613158565b935050608087013567ffffffffffffffff8111156139705761396f613077565b5b61397c89828a01613675565b92509250509295509295509295565b6000602082840312156139a1576139a0613072565b5b60006139af8482850161320d565b91505092915050565b60006139c382613850565b9050919050565b6139d3816139b8565b82525050565b60006020820190506139ee60008301846139ca565b92915050565b7f4e487b7100000000000000000000000000000000000000000000000000000000600052601160045260246000fd5b6000613a2e82613137565b9150613a3983613137565b9250828203905081811115613a5157613a506139f4565b5b92915050565b6000613a6282613137565b9150613a6d83613137565b9250828202613a7b81613137565b91508282048414831517613a9257613a916139f4565b5b5092915050565b7f4e487b7100000000000000000000000000000000000000000000000000000000600052601260045260246000fd5b6000613ad382613137565b9150613ade83613137565b925082613aee57613aed613a99565b5b828204905092915050565b6000613b0482613137565b9150613b0f83613137565b9250828201905080821115613b2757613b266139f4565b5b92915050565b7f4661726d436974795374616b696e673a20726577617264206475726174696f6e60008201527f206d7573742062652067726561746572207468616e2030000000000000000000602082015250565b6000613b896037836135df565b9150613b9482613b2d565b604082019050919050565b60006020820190508181036000830152613bb881613b7c565b9050919050565b7f4661726d436974795374616b696e673a2070726576696f75732072657761726460008201527f7320706572696f64206d75737420626520636f6d706c65746500000000000000602082015250565b6000613c1b6039836135df565b9150613c2682613bbf565b604082019050919050565b60006020820190508181036000830152613c4a81613c0e565b9050919050565b7f4e487b7100000000000000000000000000000000000000000000000000000000600052603260045260246000fd5b6000604082019050613c9560008301856135aa565b613ca2602083018461319a565b9392505050565b613cb281613101565b8114613cbd57600080fd5b50565b600081519050613ccf81613ca9565b92915050565b600060208284031215613ceb57613cea613072565b5b6000613cf984828501613cc0565b91505092915050565b7f4661726d436974795374616b696e673a20726577617264207472616e7366657260008201527f206661696c656400000000000000000000000000000000000000000000000000602082015250565b6000613d5e6027836135df565b9150613d6982613d02565b604082019050919050565b60006020820190508181036000830152613d8d81613d51565b9050919050565b7f4661726d436974795374616b696e673a2072657761726420616d6f756e74206d60008201527f7573742062652067726561746572207468616e20300000000000000000000000602082015250565b6000613df06035836135df565b9150613dfb82613d94565b604082019050919050565b60006020820190508181036000830152613e1f81613de3565b9050919050565b7f4661726d436974795374616b696e673a206e6f20746f6b656e73207374616b6560008201527f6420666f72207468697320494400000000000000000000000000000000000000602082015250565b6000613e82602d836135df565b9150613e8d82613e26565b604082019050919050565b60006020820190508181036000830152613eb181613e75565b9050919050565b6000606082019050613ecd60008301866135aa565b613eda60208301856135aa565b613ee7604083018461319a565b949350505050565b6000604082019050613f04600083018561319a565b613f11602083018461319a565b9392505050565b7f4661726d436974795374616b696e673a2063616e6e6f74207374616b65203000600082015250565b6000613f4e601f836135df565b9150613f5982613f18565b602082019050919050565b60006020820190508181036000830152613f7d81613f41565b9050919050565b600082825260208201905092915050565b50565b6000613fa5600083613f84565b9150613fb082613f95565b600082019050919050565b600060a082019050613fd060008301876135aa565b613fdd60208301866135aa565b613fea604083018561319a565b613ff7606083018461319a565b818103608083015261400881613f98565b905095945050505050565b7f4661726d436974795374616b696e673a2063616e6e6f74207265636f7665722060008201527f72657761726420746f6b656e0000000000000000000000000000000000000000602082015250565b600061406f602c836135df565b915061407a82614013565b604082019050919050565b6000602082019050818103600083015261409e81614062565b9050919050565b7f4661726d436974795374616b696e673a2063616e6e6f7420756e7374616b652060008201527f3000000000000000000000000000000000000000000000000000000000000000602082015250565b60006141016021836135df565b915061410c826140a5565b604082019050919050565b60006020820190508181036000830152614130816140f4565b9050919050565b7f4661726d436974795374616b696e673a20756e7374616b6520616d6f756e742060008201527f657863656564732062616c616e63650000000000000000000000000000000000602082015250565b6000614193602f836135df565b915061419e82614137565b604082019050919050565b600060208201905081810360008301526141c281614186565b9050919050565b7f4661726d436974795374616b696e673a206661726d20746f6b656e206973207a60008201527f65726f2061646472657373000000000000000000000000000000000000000000602082015250565b6000614225602b836135df565b9150614230826141c9565b604082019050919050565b6000602082019050818103600083015261425481614218565b9050919050565b7f4661726d436974795374616b696e673a2072657761726420746f6b656e20697360008201527f207a65726f206164647265737300000000000000000000000000000000000000602082015250565b60006142b7602d836135df565b91506142c28261425b565b604082019050919050565b600060208201905081810360008301526142e6816142aa565b9050919050565b6000819050919050565b600067ffffffffffffffff82169050919050565b600061432661432161431c846142ed565b613824565b6142f7565b9050919050565b6143368161430b565b82525050565b6000602082019050614351600083018461432d565b92915050565b7f4661726d436974795374616b696e673a2063616e6e6f74207265636f7665722060008201527f7374616b656420746f6b656e7300000000000000000000000000000000000000602082015250565b60006143b3602d836135df565b91506143be82614357565b604082019050919050565b600060208201905081810360008301526143e2816143a6565b9050919050565b6143f281613404565b81146143fd57600080fd5b50565b60008151905061440f816143e9565b92915050565b60006020828403121561442b5761442a613072565b5b600061443984828501614400565b91505092915050565b600081519050919050565b600081905092915050565b600061446382614442565b61446d818561444d565b935061447d8185602086016135f0565b80840191505092915050565b60006144958284614458565b91508190509291505056fea26469706673582212208228e6ed155273e3785c2a1087b0cc11388b215dcd8ab6b2ef6fc9686323923c64736f6c634300081c0033",
  "devdoc": {
    "custom:security-contact": "admin@farmcity.dev",
    "errors": {
      "AddressEmptyCode(address)": [
        {
          "details": "There's no code at `target` (it is not a contract)."
        }
      ],
      "ERC1967InvalidImplementation(address)": [
        {
          "details": "The `implementation` of the proxy is invalid."
        }
      ],
      "ERC1967NonPayable()": [
        {
          "details": "An upgrade function sees `msg.value > 0` that may be lost."
        }
      ],
      "EnforcedPause()": [
        {
          "details": "The operation failed because the contract is paused."
        }
      ],
      "ExpectedPause()": [
        {
          "details": "The operation failed because the contract is not paused."
        }
      ],
      "FailedCall()": [
        {
          "details": "A call to an address target failed. The target may have reverted."
        }
      ],
      "InvalidInitialization()": [
        {
          "details": "The contract is already initialized."
        }
      ],
      "NotInitializing()": [
        {
          "details": "The contract is not initializing."
        }
      ],
      "OwnableInvalidOwner(address)": [
        {
          "details": "The owner is not a valid owner account. (eg. `address(0)`)"
        }
      ],
      "OwnableUnauthorizedAccount(address)": [
        {
          "details": "The caller account is not authorized to perform an operation."
        }
      ],
      "ReentrancyGuardReentrantCall()": [
        {
          "details": "Unauthorized reentrant call."
        }
      ],
      "UUPSUnauthorizedCallContext()": [
        {
          "details": "The call is from an unauthorized context."
        }
      ],
      "UUPSUnsupportedProxiableUUID(bytes32)": [
        {
          "details": "The storage `slot` is unsupported as a UUID."
        }
      ]
    },
    "events": {
      "Initialized(uint64)": {
        "details": "Triggered when the contract has been initialized or reinitialized."
      },
      "Paused(address)": {
        "details": "Emitted when the pause is triggered by `account`."
      },
      "Unpaused(address)": {
        "details": "Emitted when the pause is lifted by `account`."
      },
      "Upgraded(address)": {
        "details": "Emitted when the implementation is upgraded."
      }
    },
    "kind": "dev",
    "methods": {
      "addReward(uint256,uint256)": {
        "params": {
          "amount": "The amount of reward tokens to add",
          "tokenId": "The ID of the token to add rewards for"
        }
      },
      "claimReward(uint256)": {
        "params": {
          "tokenId": "The ID of the token to claim rewards for"
        }
      },
      "claimRewards(uint256[])": {
        "params": {
          "tokenIds": "Array of token IDs to claim rewards for"
        }
      },
      "constructor": {
        "custom:oz-upgrades-unsafe-allow": "constructor"
      },
      "earned(address,uint256)": {
        "params": {
          "account": "The address of the user",
          "tokenId": "The ID of the token"
        },
        "returns": {
          "_0": "The earned rewards"
        }
      },
      "exit(uint256)": {
        "params": {
          "tokenId": "The ID of the token to exit from"
        }
      },
      "getRewardFinishTime(uint256)": {
        "params": {
          "tokenId": "The ID of the token"
        },
        "returns": {
          "_0": "The reward finish time"
        }
      },
      "getRewardRate(uint256)": {
        "params": {
          "tokenId": "The ID of the token"
        },
        "returns": {
          "_0": "The reward rate (tokens per second)"
        }
      },
      "getStakedAmount(address,uint256)": {
        "params": {
          "account": "The address of the user",
          "tokenId": "The ID of the token"
        },
        "returns": {
          "_0": "The staked amount"
        }
      },
      "getTotalStaked(uint256)": {
        "params": {
          "tokenId": "The ID of the token"
        },
        "returns": {
          "_0": "The total staked amount"
        }
      },
      "initialize(address,address,address)": {
        "params": {
          "_farmToken": "The address of the FarmCity ERC1155 token contract",
          "_rewardToken": "The address of the USDT ERC20 token contract",
          "initialOwner": "The address of the initial owner"
        }
      },
      "lastTimeRewardApplicable(uint256)": {
        "params": {
          "tokenId": "The ID of the token"
        },
        "returns": {
          "_0": "The timestamp when rewards were last applicable"
        }
      },
      "owner()": {
        "details": "Returns the address of the current owner."
      },
      "paused()": {
        "details": "Returns true if the contract is paused, and false otherwise."
      },
      "proxiableUUID()": {
        "details": "Implementation of the ERC-1822 {proxiableUUID} function. This returns the storage slot used by the implementation. It is used to validate the implementation's compatibility when performing an upgrade. IMPORTANT: A proxy pointing at a proxiable contract should not be considered proxiable itself, because this risks bricking a proxy that upgrades to it, by delegating to itself until out of gas. Thus it is critical that this function revert if invoked through a proxy. This is guaranteed by the `notDelegated` modifier."
      },
      "recoverERC1155(address,uint256,uint256)": {
        "params": {
          "amount": "The amount of tokens to recover",
          "tokenAddress": "The address of the token to recover",
          "tokenId": "The ID of the token to recover"
        }
      },
      "recoverERC20(address,uint256)": {
        "params": {
          "amount": "The amount of tokens to recover",
          "tokenAddress": "The address of the token to recover"
        }
      },
      "renounceOwnership()": {
        "details": "Leaves the contract without owner. It will not be possible to call `onlyOwner` functions. Can only be called by the current owner. NOTE: Renouncing ownership will leave the contract without an owner, thereby disabling any functionality that is only available to the owner."
      },
      "rewardPerToken(uint256)": {
        "params": {
          "tokenId": "The ID of the token"
        },
        "returns": {
          "_0": "The current reward per token"
        }
      },
      "setRewardDuration(uint256,uint256)": {
        "params": {
          "duration": "The new duration in seconds",
          "tokenId": "The ID of the token to set the duration for"
        }
      },
      "stake(uint256,uint256)": {
        "params": {
          "amount": "The amount of tokens to stake",
          "tokenId": "The ID of the token to stake"
        }
      },
      "transferOwnership(address)": {
        "details": "Transfers ownership of the contract to a new account (`newOwner`). Can only be called by the current owner."
      },
      "unstake(uint256,uint256)": {
        "params": {
          "amount": "The amount of tokens to unstake",
          "tokenId": "The ID of the token to unstake"
        }
      },
      "upgradeToAndCall(address,bytes)": {
        "custom:oz-upgrades-unsafe-allow-reachable": "delegatecall",
        "details": "Upgrade the implementation of the proxy to `newImplementation`, and subsequently execute the function call encoded in `data`. Calls {_authorizeUpgrade}. Emits an {Upgraded} event."
      }
    },
    "title": "FarmCityStaking",
    "version": 1
  },
  "userdoc": {
    "kind": "user",
    "methods": {
      "addReward(uint256,uint256)": {
        "notice": "Add rewards for a specific token ID"
      },
      "claimReward(uint256)": {
        "notice": "Claim accumulated rewards for a specific token ID"
      },
      "claimRewards(uint256[])": {
        "notice": "Claim accumulated rewards for multiple token IDs"
      },
      "earned(address,uint256)": {
        "notice": "Calculate the earned rewards for a user and token ID"
      },
      "exit(uint256)": {
        "notice": "Exit: Unstake all tokens and claim rewards for a specific token ID"
      },
      "farmToken()": {
        "notice": "The FarmCity ERC1155 token contract"
      },
      "getRewardFinishTime(uint256)": {
        "notice": "Get the reward finish time for a token ID"
      },
      "getRewardRate(uint256)": {
        "notice": "Get the reward rate for a specific token ID"
      },
      "getStakedAmount(address,uint256)": {
        "notice": "Get the staked amount for a user and token ID"
      },
      "getTotalStaked(uint256)": {
        "notice": "Get the total staked amount for a token ID"
      },
      "initialize(address,address,address)": {
        "notice": "Initialize the contract"
      },
      "lastTimeRewardApplicable(uint256)": {
        "notice": "Get the last time rewards were applicable for a token ID"
      },
      "lastUpdateTimePerToken(uint256)": {
        "notice": "Mapping from tokenId to last update time"
      },
      "onERC1155BatchReceived(address,address,uint256[],uint256[],bytes)": {
        "notice": "Handle the receipt of multiple ERC1155 token types"
      },
      "onERC1155Received(address,address,uint256,uint256,bytes)": {
        "notice": "Handle the receipt of a single ERC1155 token type"
      },
      "pause()": {
        "notice": "Pause staking"
      },
      "recoverERC1155(address,uint256,uint256)": {
        "notice": "Recover ERC1155 tokens sent to this contract by mistake"
      },
      "recoverERC20(address,uint256)": {
        "notice": "Recover ERC20 tokens sent to this contract by mistake"
      },
      "rewardDurationPerToken(uint256)": {
        "notice": "Mapping from tokenId to reward duration in seconds"
      },
      "rewardFinishTimePerToken(uint256)": {
        "notice": "Mapping from tokenId to reward finish time"
      },
      "rewardPerToken(uint256)": {
        "notice": "Calculate the current reward per token for a specific token ID"
      },
      "rewardPerTokenStored(uint256)": {
        "notice": "Mapping from tokenId to accumulated rewards per token"
      },
      "rewardRatePerToken(uint256)": {
        "notice": "Mapping from tokenId to reward rate (tokens per second)"
      },
      "rewardToken()": {
        "notice": "The USDT ERC20 token used for rewards"
      },
      "setRewardDuration(uint256,uint256)": {
        "notice": "Set the reward duration for a specific token ID"
      },
      "stake(uint256,uint256)": {
        "notice": "Stake FarmCity tokens"
      },
      "stakeInfo(uint256,address)": {
        "notice": "Mapping from tokenId to user address to stake info"
      },
      "supportsInterface(bytes4)": {
        "notice": "Check if the contract supports an interface"
      },
      "totalStaked(uint256)": {
        "notice": "Mapping from tokenId to total staked amount"
      },
      "unpause()": {
        "notice": "Unpause staking"
      },
      "unstake(uint256,uint256)": {
        "notice": "Unstake FarmCity tokens"
      }
    },
    "notice": "Staking contract for FarmCity ERC1155 tokens with USDT rewards",
    "version": 1
  },
  "storageLayout": {
    "storage": [
      {
        "astId": 9261,
        "contract": "contracts/FarmCityStaking.sol:FarmCityStaking",
        "label": "farmToken",
        "offset": 0,
        "slot": "0",
        "type": "t_contract(IERC1155)3001"
      },
      {
        "astId": 9265,
        "contract": "contracts/FarmCityStaking.sol:FarmCityStaking",
        "label": "rewardToken",
        "offset": 0,
        "slot": "1",
        "type": "t_contract(IERC20)3806"
      },
      {
        "astId": 9287,
        "contract": "contracts/FarmCityStaking.sol:FarmCityStaking",
        "label": "stakeInfo",
        "offset": 0,
        "slot": "2",
        "type": "t_mapping(t_uint256,t_mapping(t_address,t_struct(StakeInfo)9279_storage))"
      },
      {
        "astId": 9292,
        "contract": "contracts/FarmCityStaking.sol:FarmCityStaking",
        "label": "totalStaked",
        "offset": 0,
        "slot": "3",
        "type": "t_mapping(t_uint256,t_uint256)"
      },
      {
        "astId": 9297,
        "contract": "contracts/FarmCityStaking.sol:FarmCityStaking",
        "label": "rewardPerTokenStored",
        "offset": 0,
        "slot": "4",
        "type": "t_mapping(t_uint256,t_uint256)"
      },
      {
        "astId": 9302,
        "contract": "contracts/FarmCityStaking.sol:FarmCityStaking",
        "label": "lastUpdateTimePerToken",
        "offset": 0,
        "slot": "5",
        "type": "t_mapping(t_uint256,t_uint256)"
      },
      {
        "astId": 9307,
        "contract": "contracts/FarmCityStaking.sol:FarmCityStaking",
        "label": "rewardRatePerToken",
        "offset": 0,
        "slot": "6",
        "type": "t_mapping(t_uint256,t_uint256)"
      },
      {
        "astId": 9312,
        "contract": "contracts/FarmCityStaking.sol:FarmCityStaking",
        "label": "rewardDurationPerToken",
        "offset": 0,
        "slot": "7",
        "type": "t_mapping(t_uint256,t_uint256)"
      },
      {
        "astId": 9317,
        "contract": "contracts/FarmCityStaking.sol:FarmCityStaking",
        "label": "rewardFinishTimePerToken",
        "offset": 0,
        "slot": "8",
        "type": "t_mapping(t_uint256,t_uint256)"
      }
    ],
    "types": {
      "t_address": {
        "encoding": "inplace",
        "label": "address",
        "numberOfBytes": "20"
      },
      "t_contract(IERC1155)3001": {
        "encoding": "inplace",
        "label": "contract IERC1155",
        "numberOfBytes": "20"
      },
      "t_contract(IERC20)3806": {
        "encoding": "inplace",
        "label": "contract IERC20",
        "numberOfBytes": "20"
      },
      "t_mapping(t_address,t_struct(StakeInfo)9279_storage)": {
        "encoding": "mapping",
        "key": "t_address",
        "label": "mapping(address => struct FarmCityStaking.StakeInfo)",
        "numberOfBytes": "32",
        "value": "t_struct(StakeInfo)9279_storage"
      },
      "t_mapping(t_uint256,t_mapping(t_address,t_struct(StakeInfo)9279_storage))": {
        "encoding": "mapping",
        "key": "t_uint256",
        "label": "mapping(uint256 => mapping(address => struct FarmCityStaking.StakeInfo))",
        "numberOfBytes": "32",
        "value": "t_mapping(t_address,t_struct(StakeInfo)9279_storage)"
      },
      "t_mapping(t_uint256,t_uint256)": {
        "encoding": "mapping",
        "key": "t_uint256",
        "label": "mapping(uint256 => uint256)",
        "numberOfBytes": "32",
        "value": "t_uint256"
      },
      "t_struct(StakeInfo)9279_storage": {
        "encoding": "inplace",
        "label": "struct FarmCityStaking.StakeInfo",
        "members": [
          {
            "astId": 9272,
            "contract": "contracts/FarmCityStaking.sol:FarmCityStaking",
            "label": "amount",
            "offset": 0,
            "slot": "0",
            "type": "t_uint256"
          },
          {
            "astId": 9274,
            "contract": "contracts/FarmCityStaking.sol:FarmCityStaking",
            "label": "rewardPerTokenPaid",
            "offset": 0,
            "slot": "1",
            "type": "t_uint256"
          },
          {
            "astId": 9276,
            "contract": "contracts/FarmCityStaking.sol:FarmCityStaking",
            "label": "rewards",
            "offset": 0,
            "slot": "2",
            "type": "t_uint256"
          },
          {
            "astId": 9278,
            "contract": "contracts/FarmCityStaking.sol:FarmCityStaking",
            "label": "lastUpdateTime",
            "offset": 0,
            "slot": "3",
            "type": "t_uint256"
          }
        ],
        "numberOfBytes": "128"
      },
      "t_uint256": {
        "encoding": "inplace",
        "label": "uint256",
        "numberOfBytes": "32"
      }
    }
  }
}